{
  "contractName": "BatchTransfer",
  "abi": [
    {
      "inputs": [
        {
          "internalType": "contract ERC721Partial",
          "name": "tokenContract",
          "type": "address"
        },
        {
          "internalType": "address",
          "name": "recipient",
          "type": "address"
        },
        {
          "internalType": "uint256[]",
          "name": "tokenIds",
          "type": "uint256[]"
        }
      ],
      "name": "batchTransfer",
      "outputs": [],
      "stateMutability": "nonpayable",
      "type": "function"
    },
    {
      "inputs": [
        {
          "internalType": "address",
          "name": "operator",
          "type": "address"
        },
        {
          "internalType": "bool",
          "name": "approve",
          "type": "bool"
        }
      ],
      "name": "setApproveForAll",
      "outputs": [],
      "stateMutability": "nonpayable",
      "type": "function"
    },
    {
      "inputs": [
        {
          "internalType": "address",
          "name": "owner",
          "type": "address"
        },
        {
          "internalType": "address",
          "name": "operator",
          "type": "address"
        }
      ],
      "name": "isApprovedForAll",
      "outputs": [
        {
          "internalType": "bool",
          "name": "",
          "type": "bool"
        }
      ],
      "stateMutability": "view",
      "type": "function",
      "constant": true
    }
  ],
  "bytecode": "0x608060405234801561001057600080fd5b5061065c806100206000396000f3fe608060405234801561001057600080fd5b50600436106100415760003560e01c80633593cebc14610046578063b4989c3f14610062578063e985e9c51461007e575b600080fd5b610060600480360381019061005b91906103cb565b6100ae565b005b61007c60048036038101906100779190610477565b61015e565b005b610098600480360381019061009391906104b7565b61022d565b6040516100a59190610506565b60405180910390f35b60005b82829050811015610157578473ffffffffffffffffffffffffffffffffffffffff166323b872dd33868686868181106100ed576100ec610521565b5b905060200201356040518463ffffffff1660e01b815260040161011293929190610578565b600060405180830381600087803b15801561012c57600080fd5b505af1158015610140573d6000803e3d6000fd5b50505050808061014f906105de565b9150506100b1565b5050505050565b8173ffffffffffffffffffffffffffffffffffffffff163373ffffffffffffffffffffffffffffffffffffffff160361019657600080fd5b806000803373ffffffffffffffffffffffffffffffffffffffff1673ffffffffffffffffffffffffffffffffffffffff16815260200190815260200160002060008473ffffffffffffffffffffffffffffffffffffffff1673ffffffffffffffffffffffffffffffffffffffff16815260200190815260200160002060006101000a81548160ff0219169083151502179055505050565b60008060008473ffffffffffffffffffffffffffffffffffffffff1673ffffffffffffffffffffffffffffffffffffffff16815260200190815260200160002060008373ffffffffffffffffffffffffffffffffffffffff1673ffffffffffffffffffffffffffffffffffffffff16815260200190815260200160002060009054906101000a900460ff16905092915050565b600080fd5b600080fd5b600073ffffffffffffffffffffffffffffffffffffffff82169050919050565b60006102f5826102ca565b9050919050565b6000610307826102ea565b9050919050565b610317816102fc565b811461032257600080fd5b50565b6000813590506103348161030e565b92915050565b610343816102ea565b811461034e57600080fd5b50565b6000813590506103608161033a565b92915050565b600080fd5b600080fd5b600080fd5b60008083601f84011261038b5761038a610366565b5b8235905067ffffffffffffffff8111156103a8576103a761036b565b5b6020830191508360208202830111156103c4576103c3610370565b5b9250929050565b600080600080606085870312156103e5576103e46102c0565b5b60006103f387828801610325565b945050602061040487828801610351565b935050604085013567ffffffffffffffff811115610425576104246102c5565b5b61043187828801610375565b925092505092959194509250565b60008115159050919050565b6104548161043f565b811461045f57600080fd5b50565b6000813590506104718161044b565b92915050565b6000806040838503121561048e5761048d6102c0565b5b600061049c85828601610351565b92505060206104ad85828601610462565b9150509250929050565b600080604083850312156104ce576104cd6102c0565b5b60006104dc85828601610351565b92505060206104ed85828601610351565b9150509250929050565b6105008161043f565b82525050565b600060208201905061051b60008301846104f7565b92915050565b7f4e487b7100000000000000000000000000000000000000000000000000000000600052603260045260246000fd5b610559816102ea565b82525050565b6000819050919050565b6105728161055f565b82525050565b600060608201905061058d6000830186610550565b61059a6020830185610550565b6105a76040830184610569565b949350505050565b7f4e487b7100000000000000000000000000000000000000000000000000000000600052601160045260246000fd5b60006105e98261055f565b91507fffffffffffffffffffffffffffffffffffffffffffffffffffffffffffffffff820361061b5761061a6105af565b5b60018201905091905056fea2646970667358221220e18d8ea55a6ff9fa02548892ed48c33ba3e1dd457815a931f0cdbcff40c1174564736f6c634300080e0033",
  "immutableReferences": {},
  "source": "pragma solidity ^0.8.14;\r\n\r\nimport \"@openzeppelin/contracts/token/ERC721/ERC721.sol\";\r\n\r\ninterface ERC721Partial {\r\n    function transferFrom(address from, address to, uint256 tokenId) external;\r\n}\r\n\r\n\r\ncontract BatchTransfer {\r\n  mapping(address=> mapping(address=> bool)) private _operatorApproved;\r\n\r\n\r\n  function batchTransfer(ERC721Partial tokenContract, address recipient, uint256[] calldata tokenIds) external {\r\n    for (uint256 index; index < tokenIds.length; index++) {\r\n        tokenContract.transferFrom(msg.sender, recipient, tokenIds[index]);\r\n    }\r\n  }\r\n\r\n  function setApproveForAll(address operator, bool approve) external {\r\n    require(msg.sender != operator);\r\n    _operatorApproved[msg.sender][operator] = approve;\r\n  }\r\n\r\n  function isApprovedForAll(address owner, address operator) external view returns(bool) {\r\n    return _operatorApproved[owner][operator];\r\n  }\r\n}",
  "sourcePath": "C:\\Users\\CJS\\Desktop\\Blockchain\\batch-address-tool\\contracts\\BatchTransfer.sol",
  "compiler": {
    "name": "solc",
    "version": "0.8.14+commit.80d49f37.Emscripten.clang"
  },
  "schemaVersion": "3.4.7",
  "updatedAt": "2022-06-28T14:57:47.856Z",
  "networkType": "ethereum",
  "devdoc": {
    "kind": "dev",
    "methods": {},
    "version": 1
  },
  "userdoc": {
    "kind": "user",
    "methods": {},
    "version": 1
  }
}