{
  "contractName": "BatchTransfer",
  "abi": [
    {
      "inputs": [],
      "name": "owner",
      "outputs": [
        {
          "internalType": "address",
          "name": "",
          "type": "address"
        }
      ],
      "stateMutability": "view",
      "type": "function",
      "constant": true
    },
    {
      "inputs": [
        {
          "internalType": "contract ERC721Partial",
          "name": "tokenContract",
          "type": "address"
        },
        {
          "internalType": "address",
          "name": "recipient",
          "type": "address"
        },
        {
          "internalType": "uint256[]",
          "name": "tokenIds",
          "type": "uint256[]"
        }
      ],
      "name": "batchTransfer",
      "outputs": [],
      "stateMutability": "nonpayable",
      "type": "function"
    },
    {
      "inputs": [],
      "name": "onePlusOne",
      "outputs": [
        {
          "internalType": "uint256",
          "name": "",
          "type": "uint256"
        }
      ],
      "stateMutability": "pure",
      "type": "function",
      "constant": true
    }
  ],
  "bytecode": "0x6080604052336000806101000a81548173ffffffffffffffffffffffffffffffffffffffff021916908373ffffffffffffffffffffffffffffffffffffffff16021790555034801561005057600080fd5b5061046b806100606000396000f3fe608060405234801561001057600080fd5b50600436106100415760003560e01c80633593cebc146100465780638da5cb5b14610062578063ca93bbb214610080575b600080fd5b610060600480360381019061005b9190610286565b61009e565b005b61006a61014e565b6040516100779190610309565b60405180910390f35b610088610172565b604051610095919061033d565b60405180910390f35b60005b82829050811015610147578473ffffffffffffffffffffffffffffffffffffffff166323b872dd33868686868181106100dd576100dc610358565b5b905060200201356040518463ffffffff1660e01b815260040161010293929190610387565b600060405180830381600087803b15801561011c57600080fd5b505af1158015610130573d6000803e3d6000fd5b50505050808061013f906103ed565b9150506100a1565b5050505050565b60008054906101000a900473ffffffffffffffffffffffffffffffffffffffff1681565b60006002905090565b600080fd5b600080fd5b600073ffffffffffffffffffffffffffffffffffffffff82169050919050565b60006101b082610185565b9050919050565b60006101c2826101a5565b9050919050565b6101d2816101b7565b81146101dd57600080fd5b50565b6000813590506101ef816101c9565b92915050565b6101fe816101a5565b811461020957600080fd5b50565b60008135905061021b816101f5565b92915050565b600080fd5b600080fd5b600080fd5b60008083601f84011261024657610245610221565b5b8235905067ffffffffffffffff81111561026357610262610226565b5b60208301915083602082028301111561027f5761027e61022b565b5b9250929050565b600080600080606085870312156102a05761029f61017b565b5b60006102ae878288016101e0565b94505060206102bf8782880161020c565b935050604085013567ffffffffffffffff8111156102e0576102df610180565b5b6102ec87828801610230565b925092505092959194509250565b610303816101a5565b82525050565b600060208201905061031e60008301846102fa565b92915050565b6000819050919050565b61033781610324565b82525050565b6000602082019050610352600083018461032e565b92915050565b7f4e487b7100000000000000000000000000000000000000000000000000000000600052603260045260246000fd5b600060608201905061039c60008301866102fa565b6103a960208301856102fa565b6103b6604083018461032e565b949350505050565b7f4e487b7100000000000000000000000000000000000000000000000000000000600052601160045260246000fd5b60006103f882610324565b91507fffffffffffffffffffffffffffffffffffffffffffffffffffffffffffffffff820361042a576104296103be565b5b60018201905091905056fea2646970667358221220b09f7be69f53684e544f13f96663cf20f85553e4619d0d2800835da50115bb9564736f6c634300080e0033",
  "immutableReferences": {},
  "source": "pragma solidity ^0.8.14;\r\n\r\ninterface ERC721Partial {\r\n    function transferFrom(address from, address to, uint256 tokenId) external;\r\n}\r\n\r\n\r\ncontract BatchTransfer{\r\n  address public owner = msg.sender;\r\n\r\n  modifier onlyOwner() {\r\n    require(\r\n      msg.sender == owner,\r\n      \"This function is restricted to the contract's owner\"\r\n    );\r\n    _;\r\n  }\r\n\r\n  function batchTransfer(ERC721Partial tokenContract, address recipient, uint256[] calldata tokenIds) external {\r\n      for (uint256 index; index < tokenIds.length; index++) {\r\n          tokenContract.transferFrom(msg.sender, recipient, tokenIds[index]);\r\n      }\r\n  }\r\n\r\n  function onePlusOne()public pure returns(uint256) {\r\n    return 1+1;\r\n  }\r\n}",
  "sourcePath": "C:\\Users\\CJS\\Desktop\\Blockchain\\batch-address-tool\\contracts\\BatchTransfer.sol",
  "compiler": {
    "name": "solc",
    "version": "0.8.14+commit.80d49f37.Emscripten.clang"
  },
  "schemaVersion": "3.4.7",
  "updatedAt": "2022-06-27T15:00:16.868Z",
  "networkType": "ethereum",
  "devdoc": {
    "kind": "dev",
    "methods": {},
    "version": 1
  },
  "userdoc": {
    "kind": "user",
    "methods": {},
    "version": 1
  }
}