{
  "contractName": "BatchTransfer",
  "abi": [
    {
      "inputs": [
        {
          "internalType": "contract ERC721Partial",
          "name": "tokenContract",
          "type": "address"
        },
        {
          "internalType": "address[]",
          "name": "recipient",
          "type": "address[]"
        },
        {
          "internalType": "uint256[]",
          "name": "tokenIds",
          "type": "uint256[]"
        }
      ],
      "name": "batchTransfer721",
      "outputs": [],
      "stateMutability": "nonpayable",
      "type": "function"
    },
    {
      "inputs": [
        {
          "internalType": "contract ERC1155Partial",
          "name": "tokenContract",
          "type": "address"
        },
        {
          "internalType": "address[]",
          "name": "recipient",
          "type": "address[]"
        },
        {
          "internalType": "uint256[][]",
          "name": "tokenIds",
          "type": "uint256[][]"
        },
        {
          "internalType": "uint256[][]",
          "name": "amounts",
          "type": "uint256[][]"
        }
      ],
      "name": "batchTransfer1155",
      "outputs": [],
      "stateMutability": "nonpayable",
      "type": "function"
    }
  ],
  "bytecode": "0x608060405234801561001057600080fd5b50610c60806100206000396000f3fe608060405234801561001057600080fd5b50600436106100365760003560e01c80634e3caa1d1461003b578063a8953c0a14610057575b600080fd5b61005560048036038101906100509190610447565b610073565b005b610071600480360381019061006c919061086f565b61014b565b005b60005b82829050811015610143578573ffffffffffffffffffffffffffffffffffffffff166323b872dd338787858181106100b1576100b061092a565b5b90506020020160208101906100c69190610959565b8686868181106100d9576100d861092a565b5b905060200201356040518463ffffffff1660e01b81526004016100fe939291906109a4565b600060405180830381600087803b15801561011857600080fd5b505af115801561012c573d6000803e3d6000fd5b50505050808061013b90610a0a565b915050610076565b505050505050565b815183511461018f576040517f08c379a000000000000000000000000000000000000000000000000000000000815260040161018690610aaf565b60405180910390fd5b81518151146101d3576040517f08c379a00000000000000000000000000000000000000000000000000000000081526004016101ca90610aaf565b60405180910390fd5b60005b83518110156103015760008382815181106101f4576101f361092a565b5b6020026020010151905060008383815181106102135761021261092a565b5b602002602001015190508051825114610261576040517f08c379a000000000000000000000000000000000000000000000000000000000815260040161025890610aaf565b60405180910390fd5b8673ffffffffffffffffffffffffffffffffffffffff16632eb2c2d6338886815181106102915761029061092a565b5b602002602001015185856040518563ffffffff1660e01b81526004016102ba9493929190610bc4565b600060405180830381600087803b1580156102d457600080fd5b505af11580156102e8573d6000803e3d6000fd5b50505050505080806102f990610a0a565b9150506101d6565b5050505050565b6000604051905090565b600080fd5b600080fd5b600073ffffffffffffffffffffffffffffffffffffffff82169050919050565b60006103478261031c565b9050919050565b60006103598261033c565b9050919050565b6103698161034e565b811461037457600080fd5b50565b60008135905061038681610360565b92915050565b600080fd5b600080fd5b600080fd5b60008083601f8401126103b1576103b061038c565b5b8235905067ffffffffffffffff8111156103ce576103cd610391565b5b6020830191508360208202830111156103ea576103e9610396565b5b9250929050565b60008083601f8401126104075761040661038c565b5b8235905067ffffffffffffffff81111561042457610423610391565b5b6020830191508360208202830111156104405761043f610396565b5b9250929050565b60008060008060006060868803121561046357610462610312565b5b600061047188828901610377565b955050602086013567ffffffffffffffff81111561049257610491610317565b5b61049e8882890161039b565b9450945050604086013567ffffffffffffffff8111156104c1576104c0610317565b5b6104cd888289016103f1565b92509250509295509295909350565b60006104e78261033c565b9050919050565b6104f7816104dc565b811461050257600080fd5b50565b600081359050610514816104ee565b92915050565b6000601f19601f8301169050919050565b7f4e487b7100000000000000000000000000000000000000000000000000000000600052604160045260246000fd5b6105638261051a565b810181811067ffffffffffffffff821117156105825761058161052b565b5b80604052505050565b6000610595610308565b90506105a1828261055a565b919050565b600067ffffffffffffffff8211156105c1576105c061052b565b5b602082029050602081019050919050565b6105db8161033c565b81146105e657600080fd5b50565b6000813590506105f8816105d2565b92915050565b600061061161060c846105a6565b61058b565b9050808382526020820190506020840283018581111561063457610633610396565b5b835b8181101561065d578061064988826105e9565b845260208401935050602081019050610636565b5050509392505050565b600082601f83011261067c5761067b61038c565b5b813561068c8482602086016105fe565b91505092915050565b600067ffffffffffffffff8211156106b0576106af61052b565b5b602082029050602081019050919050565b600067ffffffffffffffff8211156106dc576106db61052b565b5b602082029050602081019050919050565b6000819050919050565b610700816106ed565b811461070b57600080fd5b50565b60008135905061071d816106f7565b92915050565b6000610736610731846106c1565b61058b565b9050808382526020820190506020840283018581111561075957610758610396565b5b835b81811015610782578061076e888261070e565b84526020840193505060208101905061075b565b5050509392505050565b600082601f8301126107a1576107a061038c565b5b81356107b1848260208601610723565b91505092915050565b60006107cd6107c884610695565b61058b565b905080838252602082019050602084028301858111156107f0576107ef610396565b5b835b8181101561083757803567ffffffffffffffff8111156108155761081461038c565b5b808601610822898261078c565b855260208501945050506020810190506107f2565b5050509392505050565b600082601f8301126108565761085561038c565b5b81356108668482602086016107ba565b91505092915050565b6000806000806080858703121561088957610888610312565b5b600061089787828801610505565b945050602085013567ffffffffffffffff8111156108b8576108b7610317565b5b6108c487828801610667565b935050604085013567ffffffffffffffff8111156108e5576108e4610317565b5b6108f187828801610841565b925050606085013567ffffffffffffffff81111561091257610911610317565b5b61091e87828801610841565b91505092959194509250565b7f4e487b7100000000000000000000000000000000000000000000000000000000600052603260045260246000fd5b60006020828403121561096f5761096e610312565b5b600061097d848285016105e9565b91505092915050565b61098f8161033c565b82525050565b61099e816106ed565b82525050565b60006060820190506109b96000830186610986565b6109c66020830185610986565b6109d36040830184610995565b949350505050565b7f4e487b7100000000000000000000000000000000000000000000000000000000600052601160045260246000fd5b6000610a15826106ed565b91507fffffffffffffffffffffffffffffffffffffffffffffffffffffffffffffffff8203610a4757610a466109db565b5b600182019050919050565b600082825260208201905092915050565b7f6c656e67746820697320646966666572656e7400000000000000000000000000600082015250565b6000610a99601383610a52565b9150610aa482610a63565b602082019050919050565b60006020820190508181036000830152610ac881610a8c565b9050919050565b600081519050919050565b600082825260208201905092915050565b6000819050602082019050919050565b610b04816106ed565b82525050565b6000610b168383610afb565b60208301905092915050565b6000602082019050919050565b6000610b3a82610acf565b610b448185610ada565b9350610b4f83610aeb565b8060005b83811015610b80578151610b678882610b0a565b9750610b7283610b22565b925050600181019050610b53565b5085935050505092915050565b600082825260208201905092915050565b50565b6000610bae600083610b8d565b9150610bb982610b9e565b600082019050919050565b600060a082019050610bd96000830187610986565b610be66020830186610986565b8181036040830152610bf88185610b2f565b90508181036060830152610c0c8184610b2f565b90508181036080830152610c1f81610ba1565b90509594505050505056fea26469706673582212200bd46df9dbe75a4273d7e712f62fd716fcaada9afde514f5f8bb6ad044f9321364736f6c634300080e0033",
  "immutableReferences": {},
  "source": "pragma solidity ^0.8.14;\r\n\r\nimport \"@openzeppelin/contracts/token/ERC721/ERC721.sol\";\r\nimport \"@openzeppelin/contracts/token/ERC721/extensions/ERC721Enumerable.sol\";\r\nimport \"@openzeppelin/contracts/token/ERC1155/extensions/ERC1155Supply.sol\";\r\n\r\ninterface ERC721Partial {\r\n    function transferFrom(address from, address to, uint256 tokenId) external;\r\n}\r\n\r\ninterface ERC1155Partial {\r\n    function safeBatchTransferFrom(address from, address to, uint256[] memory ids, uint256[] memory amounts, bytes memory data ) external;\r\n}\r\n\r\n\r\ncontract BatchTransfer {\r\n\r\n  function batchTransfer721(ERC721Partial tokenContract, address[] calldata recipient, uint256[] calldata tokenIds) external {\r\n      for (uint256 index; index < tokenIds.length; index++) {\r\n          tokenContract.transferFrom(msg.sender, recipient[index], tokenIds[index]);\r\n      }\r\n  }\r\n\r\n  function batchTransfer1155(ERC1155Partial tokenContract, address[] memory recipient, uint256[][] memory tokenIds, uint256[][] memory amounts) external {\r\n        require(recipient.length == tokenIds.length, 'length is different');\r\n\r\n        require(amounts.length == tokenIds.length, 'length is different');\r\n\r\n        for(uint256 i= 0; i< recipient.length; i++){\r\n            uint256[] memory tokenid_arr = tokenIds[i];\r\n            uint256[] memory amount_arr = amounts[i];\r\n\r\n            require(tokenid_arr.length == amount_arr.length, 'length is different');\r\n            \r\n            tokenContract.safeBatchTransferFrom(msg.sender, recipient[i], tokenid_arr, amount_arr,\"\");\r\n        }\r\n    }\r\n}",
  "sourcePath": "C:\\Users\\CJS\\Desktop\\Blockchain\\batch-address-tool\\contracts\\BatchTransfer.sol",
  "compiler": {
    "name": "solc",
    "version": "0.8.14+commit.80d49f37.Emscripten.clang"
  },
  "schemaVersion": "3.4.7",
  "updatedAt": "2022-07-20T09:29:38.312Z",
  "networkType": "ethereum",
  "devdoc": {
    "kind": "dev",
    "methods": {},
    "version": 1
  },
  "userdoc": {
    "kind": "user",
    "methods": {},
    "version": 1
  }
}