{
  "contractName": "BatchTransfer",
  "abi": [
    {
      "inputs": [
        {
          "internalType": "contract ERC721Partial",
          "name": "tokenContract",
          "type": "address"
        },
        {
          "internalType": "address",
          "name": "recipient",
          "type": "address"
        },
        {
          "internalType": "uint256[]",
          "name": "tokenIds",
          "type": "uint256[]"
        }
      ],
      "name": "batchTransfer",
      "outputs": [],
      "stateMutability": "nonpayable",
      "type": "function"
    }
  ],
  "bytecode": "0x608060405234801561001057600080fd5b506103b6806100206000396000f3fe608060405234801561001057600080fd5b506004361061002b5760003560e01c80633593cebc14610030575b600080fd5b61004a60048036038101906100459190610207565b61004c565b005b60005b828290508110156100f5578473ffffffffffffffffffffffffffffffffffffffff166323b872dd338686868681811061008b5761008a61027b565b5b905060200201356040518463ffffffff1660e01b81526004016100b0939291906102d2565b600060405180830381600087803b1580156100ca57600080fd5b505af11580156100de573d6000803e3d6000fd5b5050505080806100ed90610338565b91505061004f565b5050505050565b600080fd5b600080fd5b600073ffffffffffffffffffffffffffffffffffffffff82169050919050565b600061013182610106565b9050919050565b600061014382610126565b9050919050565b61015381610138565b811461015e57600080fd5b50565b6000813590506101708161014a565b92915050565b61017f81610126565b811461018a57600080fd5b50565b60008135905061019c81610176565b92915050565b600080fd5b600080fd5b600080fd5b60008083601f8401126101c7576101c66101a2565b5b8235905067ffffffffffffffff8111156101e4576101e36101a7565b5b602083019150836020820283011115610200576101ff6101ac565b5b9250929050565b60008060008060608587031215610221576102206100fc565b5b600061022f87828801610161565b94505060206102408782880161018d565b935050604085013567ffffffffffffffff81111561026157610260610101565b5b61026d878288016101b1565b925092505092959194509250565b7f4e487b7100000000000000000000000000000000000000000000000000000000600052603260045260246000fd5b6102b381610126565b82525050565b6000819050919050565b6102cc816102b9565b82525050565b60006060820190506102e760008301866102aa565b6102f460208301856102aa565b61030160408301846102c3565b949350505050565b7f4e487b7100000000000000000000000000000000000000000000000000000000600052601160045260246000fd5b6000610343826102b9565b91507fffffffffffffffffffffffffffffffffffffffffffffffffffffffffffffffff820361037557610374610309565b5b60018201905091905056fea26469706673582212202d996bbd7cfa6725452cd5de38b4e731eef8b5b52be2f4aba22b18125793f5a864736f6c634300080e0033",
  "immutableReferences": {},
  "source": "pragma solidity ^0.8.14;\r\n\r\nimport \"@openzeppelin/contracts/token/ERC721/ERC721.sol\";\r\n\r\ninterface ERC721Partial {\r\n    function transferFrom(address from, address to, uint256 tokenId) external;\r\n}\r\n\r\n\r\ncontract BatchTransfer {\r\n  mapping(address=> mapping(address=> bool)) private _operatorApproved;\r\n\r\n\r\n  function batchTransfer(ERC721Partial tokenContract, address recipient, uint256[] calldata tokenIds) external {\r\n    for (uint256 index; index < tokenIds.length; index++) {\r\n        tokenContract.transferFrom(msg.sender, recipient, tokenIds[index]);\r\n    }\r\n  }\r\n}",
  "sourcePath": "C:\\Users\\CJS\\Desktop\\Blockchain\\batch-address-tool\\contracts\\BatchTransfer.sol",
  "compiler": {
    "name": "solc",
    "version": "0.8.14+commit.80d49f37.Emscripten.clang"
  },
  "schemaVersion": "3.4.7",
  "updatedAt": "2022-06-29T06:45:05.919Z",
  "networkType": "ethereum",
  "devdoc": {
    "kind": "dev",
    "methods": {},
    "version": 1
  },
  "userdoc": {
    "kind": "user",
    "methods": {},
    "version": 1
  }
}