{
  "contractName": "BatchTransfer",
  "abi": [
    {
      "inputs": [
        {
          "internalType": "contract ERC721Partial",
          "name": "tokenContract",
          "type": "address"
        },
        {
          "internalType": "address[]",
          "name": "recipient",
          "type": "address[]"
        },
        {
          "internalType": "uint256[]",
          "name": "tokenIds",
          "type": "uint256[]"
        }
      ],
      "name": "batchTransfer",
      "outputs": [],
      "stateMutability": "nonpayable",
      "type": "function"
    }
  ],
  "bytecode": "0x608060405234801561001057600080fd5b50610482806100206000396000f3fe608060405234801561001057600080fd5b506004361061002b5760003560e01c80631239ec8c14610030575b600080fd5b61004a60048036038101906100459190610259565b61004c565b005b60005b8282905081101561011c578573ffffffffffffffffffffffffffffffffffffffff166323b872dd3387878581811061008a576100896102ee565b5b905060200201602081019061009f9190610349565b8686868181106100b2576100b16102ee565b5b905060200201356040518463ffffffff1660e01b81526004016100d79392919061039e565b600060405180830381600087803b1580156100f157600080fd5b505af1158015610105573d6000803e3d6000fd5b50505050808061011490610404565b91505061004f565b505050505050565b600080fd5b600080fd5b600073ffffffffffffffffffffffffffffffffffffffff82169050919050565b60006101598261012e565b9050919050565b600061016b8261014e565b9050919050565b61017b81610160565b811461018657600080fd5b50565b60008135905061019881610172565b92915050565b600080fd5b600080fd5b600080fd5b60008083601f8401126101c3576101c261019e565b5b8235905067ffffffffffffffff8111156101e0576101df6101a3565b5b6020830191508360208202830111156101fc576101fb6101a8565b5b9250929050565b60008083601f8401126102195761021861019e565b5b8235905067ffffffffffffffff811115610236576102356101a3565b5b602083019150836020820283011115610252576102516101a8565b5b9250929050565b60008060008060006060868803121561027557610274610124565b5b600061028388828901610189565b955050602086013567ffffffffffffffff8111156102a4576102a3610129565b5b6102b0888289016101ad565b9450945050604086013567ffffffffffffffff8111156102d3576102d2610129565b5b6102df88828901610203565b92509250509295509295909350565b7f4e487b7100000000000000000000000000000000000000000000000000000000600052603260045260246000fd5b6103268161014e565b811461033157600080fd5b50565b6000813590506103438161031d565b92915050565b60006020828403121561035f5761035e610124565b5b600061036d84828501610334565b91505092915050565b61037f8161014e565b82525050565b6000819050919050565b61039881610385565b82525050565b60006060820190506103b36000830186610376565b6103c06020830185610376565b6103cd604083018461038f565b949350505050565b7f4e487b7100000000000000000000000000000000000000000000000000000000600052601160045260246000fd5b600061040f82610385565b91507fffffffffffffffffffffffffffffffffffffffffffffffffffffffffffffffff8203610441576104406103d5565b5b60018201905091905056fea2646970667358221220aa0d2e9390c304f75717d223ee966622f9c28808c491a0d654321d7dee8fc9c864736f6c634300080e0033",
  "immutableReferences": {},
  "source": "pragma solidity ^0.8.14;\r\n\r\nimport \"@openzeppelin/contracts/token/ERC721/ERC721.sol\";\r\nimport \"@openzeppelin/contracts/token/ERC721/extensions/ERC721Enumerable.sol\";\r\n\r\ninterface ERC721Partial {\r\n    function transferFrom(address from, address to, uint256 tokenId) external;\r\n}\r\n\r\n\r\ncontract BatchTransfer {\r\n\r\n  function batchTransfer(ERC721Partial tokenContract, address[] calldata recipient, uint256[] calldata tokenIds) external {\r\n      for (uint256 index; index < tokenIds.length; index++) {\r\n          tokenContract.transferFrom(msg.sender, recipient[index], tokenIds[index]);\r\n      }\r\n  }\r\n}",
  "sourcePath": "C:\\Users\\CJS\\Desktop\\Blockchain\\batch-address-tool\\contracts\\BatchTransfer.sol",
  "compiler": {
    "name": "solc",
    "version": "0.8.14+commit.80d49f37.Emscripten.clang"
  },
  "schemaVersion": "3.4.7",
  "updatedAt": "2022-07-11T09:56:13.226Z",
  "networkType": "ethereum",
  "devdoc": {
    "kind": "dev",
    "methods": {},
    "version": 1
  },
  "userdoc": {
    "kind": "user",
    "methods": {},
    "version": 1
  }
}